{
  "_format": "hh-sol-artifact-1",
  "contractName": "NFTMarketplace",
  "sourceName": "contracts/NFTMarketplace.sol",
  "abi": [
    {
      "inputs": [],
      "stateMutability": "nonpayable",
      "type": "constructor"
    },
    {
      "anonymous": false,
      "inputs": [
        {
          "indexed": true,
          "internalType": "address",
          "name": "owner",
          "type": "address"
        },
        {
          "indexed": true,
          "internalType": "address",
          "name": "approved",
          "type": "address"
        },
        {
          "indexed": true,
          "internalType": "uint256",
          "name": "tokenId",
          "type": "uint256"
        }
      ],
      "name": "Approval",
      "type": "event"
    },
    {
      "anonymous": false,
      "inputs": [
        {
          "indexed": true,
          "internalType": "address",
          "name": "owner",
          "type": "address"
        },
        {
          "indexed": true,
          "internalType": "address",
          "name": "operator",
          "type": "address"
        },
        {
          "indexed": false,
          "internalType": "bool",
          "name": "approved",
          "type": "bool"
        }
      ],
      "name": "ApprovalForAll",
      "type": "event"
    },
    {
      "anonymous": false,
      "inputs": [
        {
          "indexed": true,
          "internalType": "address",
          "name": "previousOwner",
          "type": "address"
        },
        {
          "indexed": true,
          "internalType": "address",
          "name": "newOwner",
          "type": "address"
        }
      ],
      "name": "OwnershipTransferred",
      "type": "event"
    },
    {
      "anonymous": false,
      "inputs": [
        {
          "indexed": true,
          "internalType": "address",
          "name": "from",
          "type": "address"
        },
        {
          "indexed": true,
          "internalType": "address",
          "name": "to",
          "type": "address"
        },
        {
          "indexed": true,
          "internalType": "uint256",
          "name": "tokenId",
          "type": "uint256"
        }
      ],
      "name": "Transfer",
      "type": "event"
    },
    {
      "inputs": [
        {
          "internalType": "address",
          "name": "to",
          "type": "address"
        },
        {
          "internalType": "uint256",
          "name": "tokenId",
          "type": "uint256"
        }
      ],
      "name": "approve",
      "outputs": [],
      "stateMutability": "nonpayable",
      "type": "function"
    },
    {
      "inputs": [
        {
          "internalType": "address",
          "name": "owner",
          "type": "address"
        }
      ],
      "name": "balanceOf",
      "outputs": [
        {
          "internalType": "uint256",
          "name": "",
          "type": "uint256"
        }
      ],
      "stateMutability": "view",
      "type": "function"
    },
    {
      "inputs": [
        {
          "internalType": "uint256",
          "name": "_tokenId",
          "type": "uint256"
        }
      ],
      "name": "buyNFT",
      "outputs": [],
      "stateMutability": "payable",
      "type": "function"
    },
    {
      "inputs": [
        {
          "internalType": "uint256",
          "name": "_tokenId",
          "type": "uint256"
        }
      ],
      "name": "delistNFT",
      "outputs": [],
      "stateMutability": "nonpayable",
      "type": "function"
    },
    {
      "inputs": [
        {
          "internalType": "uint256",
          "name": "tokenId",
          "type": "uint256"
        }
      ],
      "name": "getApproved",
      "outputs": [
        {
          "internalType": "address",
          "name": "",
          "type": "address"
        }
      ],
      "stateMutability": "view",
      "type": "function"
    },
    {
      "inputs": [
        {
          "internalType": "address",
          "name": "owner",
          "type": "address"
        },
        {
          "internalType": "address",
          "name": "operator",
          "type": "address"
        }
      ],
      "name": "isApprovedForAll",
      "outputs": [
        {
          "internalType": "bool",
          "name": "",
          "type": "bool"
        }
      ],
      "stateMutability": "view",
      "type": "function"
    },
    {
      "inputs": [
        {
          "internalType": "uint256",
          "name": "_tokenId",
          "type": "uint256"
        },
        {
          "internalType": "uint256",
          "name": "_price",
          "type": "uint256"
        }
      ],
      "name": "listNFT",
      "outputs": [],
      "stateMutability": "nonpayable",
      "type": "function"
    },
    {
      "inputs": [
        {
          "internalType": "string",
          "name": "_tokenURI",
          "type": "string"
        },
        {
          "internalType": "uint256",
          "name": "_price",
          "type": "uint256"
        }
      ],
      "name": "mintNFT",
      "outputs": [],
      "stateMutability": "nonpayable",
      "type": "function"
    },
    {
      "inputs": [],
      "name": "name",
      "outputs": [
        {
          "internalType": "string",
          "name": "",
          "type": "string"
        }
      ],
      "stateMutability": "view",
      "type": "function"
    },
    {
      "inputs": [
        {
          "internalType": "uint256",
          "name": "",
          "type": "uint256"
        }
      ],
      "name": "nftDetails",
      "outputs": [
        {
          "internalType": "uint256",
          "name": "tokenId",
          "type": "uint256"
        },
        {
          "internalType": "address",
          "name": "owner",
          "type": "address"
        },
        {
          "internalType": "uint256",
          "name": "price",
          "type": "uint256"
        },
        {
          "internalType": "bool",
          "name": "forSale",
          "type": "bool"
        }
      ],
      "stateMutability": "view",
      "type": "function"
    },
    {
      "inputs": [],
      "name": "owner",
      "outputs": [
        {
          "internalType": "address",
          "name": "",
          "type": "address"
        }
      ],
      "stateMutability": "view",
      "type": "function"
    },
    {
      "inputs": [
        {
          "internalType": "uint256",
          "name": "tokenId",
          "type": "uint256"
        }
      ],
      "name": "ownerOf",
      "outputs": [
        {
          "internalType": "address",
          "name": "",
          "type": "address"
        }
      ],
      "stateMutability": "view",
      "type": "function"
    },
    {
      "inputs": [],
      "name": "renounceOwnership",
      "outputs": [],
      "stateMutability": "nonpayable",
      "type": "function"
    },
    {
      "inputs": [
        {
          "internalType": "address",
          "name": "from",
          "type": "address"
        },
        {
          "internalType": "address",
          "name": "to",
          "type": "address"
        },
        {
          "internalType": "uint256",
          "name": "tokenId",
          "type": "uint256"
        }
      ],
      "name": "safeTransferFrom",
      "outputs": [],
      "stateMutability": "nonpayable",
      "type": "function"
    },
    {
      "inputs": [
        {
          "internalType": "address",
          "name": "from",
          "type": "address"
        },
        {
          "internalType": "address",
          "name": "to",
          "type": "address"
        },
        {
          "internalType": "uint256",
          "name": "tokenId",
          "type": "uint256"
        },
        {
          "internalType": "bytes",
          "name": "data",
          "type": "bytes"
        }
      ],
      "name": "safeTransferFrom",
      "outputs": [],
      "stateMutability": "nonpayable",
      "type": "function"
    },
    {
      "inputs": [
        {
          "internalType": "address",
          "name": "operator",
          "type": "address"
        },
        {
          "internalType": "bool",
          "name": "approved",
          "type": "bool"
        }
      ],
      "name": "setApprovalForAll",
      "outputs": [],
      "stateMutability": "nonpayable",
      "type": "function"
    },
    {
      "inputs": [
        {
          "internalType": "bytes4",
          "name": "interfaceId",
          "type": "bytes4"
        }
      ],
      "name": "supportsInterface",
      "outputs": [
        {
          "internalType": "bool",
          "name": "",
          "type": "bool"
        }
      ],
      "stateMutability": "view",
      "type": "function"
    },
    {
      "inputs": [],
      "name": "symbol",
      "outputs": [
        {
          "internalType": "string",
          "name": "",
          "type": "string"
        }
      ],
      "stateMutability": "view",
      "type": "function"
    },
    {
      "inputs": [
        {
          "internalType": "uint256",
          "name": "tokenId",
          "type": "uint256"
        }
      ],
      "name": "tokenURI",
      "outputs": [
        {
          "internalType": "string",
          "name": "",
          "type": "string"
        }
      ],
      "stateMutability": "view",
      "type": "function"
    },
    {
      "inputs": [
        {
          "internalType": "address",
          "name": "from",
          "type": "address"
        },
        {
          "internalType": "address",
          "name": "to",
          "type": "address"
        },
        {
          "internalType": "uint256",
          "name": "tokenId",
          "type": "uint256"
        }
      ],
      "name": "transferFrom",
      "outputs": [],
      "stateMutability": "nonpayable",
      "type": "function"
    },
    {
      "inputs": [
        {
          "internalType": "address",
          "name": "newOwner",
          "type": "address"
        }
      ],
      "name": "transferOwnership",
      "outputs": [],
      "stateMutability": "nonpayable",
      "type": "function"
    }
  ],
  "bytecode": "0x60806040523480156200001157600080fd5b506040518060400160405280600f81526020017f4e4654204d61726b6574706c61636500000000000000000000000000000000008152506040518060400160405280600481526020017f4e46544d0000000000000000000000000000000000000000000000000000000081525081600090816200008f919062000412565b508060019081620000a1919062000412565b505050620000c4620000b8620000ca60201b60201c565b620000d260201b60201c565b620004f9565b600033905090565b6000600760009054906101000a900473ffffffffffffffffffffffffffffffffffffffff16905081600760006101000a81548173ffffffffffffffffffffffffffffffffffffffff021916908373ffffffffffffffffffffffffffffffffffffffff1602179055508173ffffffffffffffffffffffffffffffffffffffff168173ffffffffffffffffffffffffffffffffffffffff167f8be0079c531659141344cd1fd0a4f28419497f9722a3daafe3b4186f6b6457e060405160405180910390a35050565b600081519050919050565b7f4e487b7100000000000000000000000000000000000000000000000000000000600052604160045260246000fd5b7f4e487b7100000000000000000000000000000000000000000000000000000000600052602260045260246000fd5b600060028204905060018216806200021a57607f821691505b60208210810362000230576200022f620001d2565b5b50919050565b60008190508160005260206000209050919050565b60006020601f8301049050919050565b600082821b905092915050565b6000600883026200029a7fffffffffffffffffffffffffffffffffffffffffffffffffffffffffffffffff826200025b565b620002a686836200025b565b95508019841693508086168417925050509392505050565b6000819050919050565b6000819050919050565b6000620002f3620002ed620002e784620002be565b620002c8565b620002be565b9050919050565b6000819050919050565b6200030f83620002d2565b620003276200031e82620002fa565b84845462000268565b825550505050565b600090565b6200033e6200032f565b6200034b81848462000304565b505050565b5b8181101562000373576200036760008262000334565b60018101905062000351565b5050565b601f821115620003c2576200038c8162000236565b62000397846200024b565b81016020851015620003a7578190505b620003bf620003b6856200024b565b83018262000350565b50505b505050565b600082821c905092915050565b6000620003e760001984600802620003c7565b1980831691505092915050565b6000620004028383620003d4565b9150826002028217905092915050565b6200041d8262000198565b67ffffffffffffffff811115620004395762000438620001a3565b5b62000445825462000201565b6200045282828562000377565b600060209050601f8311600181146200048a576000841562000475578287015190505b620004818582620003f4565b865550620004f1565b601f1984166200049a8662000236565b60005b82811015620004c4578489015182556001820191506020850194506020810190506200049d565b86831015620004e45784890151620004e0601f891682620003d4565b8355505b6001600288020188555050505b505050505050565b61368f80620005096000396000f3fe60806040526004361061012a5760003560e01c8063715018a6116100ab578063a22cb4651161006f578063a22cb465146103e4578063b88d4fde1461040d578063c87b56dd14610436578063cb917b9c14610473578063e985e9c51461049c578063f2fde38b146104d95761012a565b8063715018a61461030e5780637d4cd847146103255780638da5cb5b1461036557806394383f141461039057806395d89b41146103b95761012a565b806342842e0e116100f257806342842e0e1461022657806351ed82881461024f5780635afa3a721461026b5780636352211e1461029457806370a08231146102d15761012a565b806301ffc9a71461012f57806306fdde031461016c578063081812fc14610197578063095ea7b3146101d457806323b872dd146101fd575b600080fd5b34801561013b57600080fd5b506101566004803603810190610151919061224b565b610502565b6040516101639190612293565b60405180910390f35b34801561017857600080fd5b506101816105e4565b60405161018e919061233e565b60405180910390f35b3480156101a357600080fd5b506101be60048036038101906101b99190612396565b610676565b6040516101cb9190612404565b60405180910390f35b3480156101e057600080fd5b506101fb60048036038101906101f6919061244b565b6106bc565b005b34801561020957600080fd5b50610224600480360381019061021f919061248b565b6107d3565b005b34801561023257600080fd5b5061024d6004803603810190610248919061248b565b610833565b005b61026960048036038101906102649190612396565b610853565b005b34801561027757600080fd5b50610292600480360381019061028d9190612613565b6109e2565b005b3480156102a057600080fd5b506102bb60048036038101906102b69190612396565b610ade565b6040516102c89190612404565b60405180910390f35b3480156102dd57600080fd5b506102f860048036038101906102f3919061266f565b610b64565b60405161030591906126ab565b60405180910390f35b34801561031a57600080fd5b50610323610c1b565b005b34801561033157600080fd5b5061034c60048036038101906103479190612396565b610c2f565b60405161035c94939291906126c6565b60405180910390f35b34801561037157600080fd5b5061037a610c8c565b6040516103879190612404565b60405180910390f35b34801561039c57600080fd5b506103b760048036038101906103b2919061270b565b610cb6565b005b3480156103c557600080fd5b506103ce610d7a565b6040516103db919061233e565b60405180910390f35b3480156103f057600080fd5b5061040b60048036038101906104069190612777565b610e0c565b005b34801561041957600080fd5b50610434600480360381019061042f9190612858565b610e22565b005b34801561044257600080fd5b5061045d60048036038101906104589190612396565b610e84565b60405161046a919061233e565b60405180910390f35b34801561047f57600080fd5b5061049a60048036038101906104959190612396565b610f96565b005b3480156104a857600080fd5b506104c360048036038101906104be91906128db565b6110bd565b6040516104d09190612293565b60405180910390f35b3480156104e557600080fd5b5061050060048036038101906104fb919061266f565b611151565b005b60007f80ac58cd000000000000000000000000000000000000000000000000000000007bffffffffffffffffffffffffffffffffffffffffffffffffffffffff1916827bffffffffffffffffffffffffffffffffffffffffffffffffffffffff191614806105cd57507f5b5e139f000000000000000000000000000000000000000000000000000000007bffffffffffffffffffffffffffffffffffffffffffffffffffffffff1916827bffffffffffffffffffffffffffffffffffffffffffffffffffffffff1916145b806105dd57506105dc826111d4565b5b9050919050565b6060600080546105f39061294a565b80601f016020809104026020016040519081016040528092919081815260200182805461061f9061294a565b801561066c5780601f106106415761010080835404028352916020019161066c565b820191906000526020600020905b81548152906001019060200180831161064f57829003601f168201915b5050505050905090565b60006106818261123e565b6004600083815260200190815260200160002060009054906101000a900473ffffffffffffffffffffffffffffffffffffffff169050919050565b60006106c782610ade565b90508073ffffffffffffffffffffffffffffffffffffffff168373ffffffffffffffffffffffffffffffffffffffff1603610737576040517f08c379a000000000000000000000000000000000000000000000000000000000815260040161072e906129ed565b60405180910390fd5b8073ffffffffffffffffffffffffffffffffffffffff16610756611289565b73ffffffffffffffffffffffffffffffffffffffff16148061078557506107848161077f611289565b6110bd565b5b6107c4576040517f08c379a00000000000000000000000000000000000000000000000000000000081526004016107bb90612a7f565b60405180910390fd5b6107ce8383611291565b505050565b6107e46107de611289565b8261134a565b610823576040517f08c379a000000000000000000000000000000000000000000000000000000000815260040161081a90612b11565b60405180910390fd5b61082e8383836113df565b505050565b61084e83838360405180602001604052806000815250610e22565b505050565b60006009600083815260200190815260200160002090508060030160009054906101000a900460ff166108bb576040517f08c379a00000000000000000000000000000000000000000000000000000000081526004016108b290612b7d565b60405180910390fd5b8060020154341015610902576040517f08c379a00000000000000000000000000000000000000000000000000000000081526004016108f990612be9565b60405180910390fd5b60008160010160009054906101000a900473ffffffffffffffffffffffffffffffffffffffff1690508073ffffffffffffffffffffffffffffffffffffffff166108fc349081150290604051600060405180830381858888f19350505050158015610971573d6000803e3d6000fd5b5061097d8133856113df565b338260010160006101000a81548173ffffffffffffffffffffffffffffffffffffffff021916908373ffffffffffffffffffffffffffffffffffffffff16021790555060008260030160006101000a81548160ff021916908315150217905550505050565b6109ec60086116d8565b60006109f860086116ee565b9050610a0433826116fc565b610a0e818461171a565b60405180608001604052808281526020013373ffffffffffffffffffffffffffffffffffffffff16815260200183815260200160001515815250600960008381526020019081526020016000206000820151816000015560208201518160010160006101000a81548173ffffffffffffffffffffffffffffffffffffffff021916908373ffffffffffffffffffffffffffffffffffffffff1602179055506040820151816002015560608201518160030160006101000a81548160ff021916908315150217905550905050505050565b600080610aea83611787565b9050600073ffffffffffffffffffffffffffffffffffffffff168173ffffffffffffffffffffffffffffffffffffffff1603610b5b576040517f08c379a0000000000000000000000000000000000000000000000000000000008152600401610b5290612c55565b60405180910390fd5b80915050919050565b60008073ffffffffffffffffffffffffffffffffffffffff168273ffffffffffffffffffffffffffffffffffffffff1603610bd4576040517f08c379a0000000000000000000000000000000000000000000000000000000008152600401610bcb90612ce7565b60405180910390fd5b600360008373ffffffffffffffffffffffffffffffffffffffff1673ffffffffffffffffffffffffffffffffffffffff168152602001908152602001600020549050919050565b610c236117c4565b610c2d6000611842565b565b60096020528060005260406000206000915090508060000154908060010160009054906101000a900473ffffffffffffffffffffffffffffffffffffffff16908060020154908060030160009054906101000a900460ff16905084565b6000600760009054906101000a900473ffffffffffffffffffffffffffffffffffffffff16905090565b3373ffffffffffffffffffffffffffffffffffffffff16610cd683610ade565b73ffffffffffffffffffffffffffffffffffffffff1614610d2c576040517f08c379a0000000000000000000000000000000000000000000000000000000008152600401610d2390612d53565b60405180910390fd5b60016009600084815260200190815260200160002060030160006101000a81548160ff0219169083151502179055508060096000848152602001908152602001600020600201819055505050565b606060018054610d899061294a565b80601f0160208091040260200160405190810160405280929190818152602001828054610db59061294a565b8015610e025780601f10610dd757610100808354040283529160200191610e02565b820191906000526020600020905b815481529060010190602001808311610de557829003601f168201915b5050505050905090565b610e1e610e17611289565b8383611908565b5050565b610e33610e2d611289565b8361134a565b610e72576040517f08c379a0000000000000000000000000000000000000000000000000000000008152600401610e6990612b11565b60405180910390fd5b610e7e84848484611a74565b50505050565b6060610e8f8261123e565b6000600660008481526020019081526020016000208054610eaf9061294a565b80601f0160208091040260200160405190810160405280929190818152602001828054610edb9061294a565b8015610f285780601f10610efd57610100808354040283529160200191610f28565b820191906000526020600020905b815481529060010190602001808311610f0b57829003601f168201915b505050505090506000610f39611ad0565b90506000815103610f4e578192505050610f91565b600082511115610f83578082604051602001610f6b929190612daf565b60405160208183030381529060405292505050610f91565b610f8c84611ae7565b925050505b919050565b3373ffffffffffffffffffffffffffffffffffffffff16610fb682610ade565b73ffffffffffffffffffffffffffffffffffffffff161461100c576040517f08c379a000000000000000000000000000000000000000000000000000000000815260040161100390612d53565b60405180910390fd5b6009600082815260200190815260200160002060030160009054906101000a900460ff1661106f576040517f08c379a000000000000000000000000000000000000000000000000000000000815260040161106690612e1f565b60405180910390fd5b60006009600083815260200190815260200160002060030160006101000a81548160ff0219169083151502179055506000600960008381526020019081526020016000206002018190555050565b6000600560008473ffffffffffffffffffffffffffffffffffffffff1673ffffffffffffffffffffffffffffffffffffffff16815260200190815260200160002060008373ffffffffffffffffffffffffffffffffffffffff1673ffffffffffffffffffffffffffffffffffffffff16815260200190815260200160002060009054906101000a900460ff16905092915050565b6111596117c4565b600073ffffffffffffffffffffffffffffffffffffffff168173ffffffffffffffffffffffffffffffffffffffff16036111c8576040517f08c379a00000000000000000000000000000000000000000000000000000000081526004016111bf90612eb1565b60405180910390fd5b6111d181611842565b50565b60007f01ffc9a7000000000000000000000000000000000000000000000000000000007bffffffffffffffffffffffffffffffffffffffffffffffffffffffff1916827bffffffffffffffffffffffffffffffffffffffffffffffffffffffff1916149050919050565b61124781611b4f565b611286576040517f08c379a000000000000000000000000000000000000000000000000000000000815260040161127d90612c55565b60405180910390fd5b50565b600033905090565b816004600083815260200190815260200160002060006101000a81548173ffffffffffffffffffffffffffffffffffffffff021916908373ffffffffffffffffffffffffffffffffffffffff160217905550808273ffffffffffffffffffffffffffffffffffffffff1661130483610ade565b73ffffffffffffffffffffffffffffffffffffffff167f8c5be1e5ebec7d5bd14f71427d1e84f3dd0314c0f7b2291e5b200ac8c7c3b92560405160405180910390a45050565b60008061135683610ade565b90508073ffffffffffffffffffffffffffffffffffffffff168473ffffffffffffffffffffffffffffffffffffffff161480611398575061139781856110bd565b5b806113d657508373ffffffffffffffffffffffffffffffffffffffff166113be84610676565b73ffffffffffffffffffffffffffffffffffffffff16145b91505092915050565b8273ffffffffffffffffffffffffffffffffffffffff166113ff82610ade565b73ffffffffffffffffffffffffffffffffffffffff1614611455576040517f08c379a000000000000000000000000000000000000000000000000000000000815260040161144c90612f43565b60405180910390fd5b600073ffffffffffffffffffffffffffffffffffffffff168273ffffffffffffffffffffffffffffffffffffffff16036114c4576040517f08c379a00000000000000000000000000000000000000000000000000000000081526004016114bb90612fd5565b60405180910390fd5b6114d18383836001611b90565b8273ffffffffffffffffffffffffffffffffffffffff166114f182610ade565b73ffffffffffffffffffffffffffffffffffffffff1614611547576040517f08c379a000000000000000000000000000000000000000000000000000000000815260040161153e90612f43565b60405180910390fd5b6004600082815260200190815260200160002060006101000a81549073ffffffffffffffffffffffffffffffffffffffff02191690556001600360008573ffffffffffffffffffffffffffffffffffffffff1673ffffffffffffffffffffffffffffffffffffffff168152602001908152602001600020600082825403925050819055506001600360008473ffffffffffffffffffffffffffffffffffffffff1673ffffffffffffffffffffffffffffffffffffffff16815260200190815260200160002060008282540192505081905550816002600083815260200190815260200160002060006101000a81548173ffffffffffffffffffffffffffffffffffffffff021916908373ffffffffffffffffffffffffffffffffffffffff160217905550808273ffffffffffffffffffffffffffffffffffffffff168473ffffffffffffffffffffffffffffffffffffffff167fddf252ad1be2c89b69c2b068fc378daa952ba7f163c4a11628f55a4df523b3ef60405160405180910390a46116d38383836001611b96565b505050565b6001816000016000828254019250508190555050565b600081600001549050919050565b611716828260405180602001604052806000815250611b9c565b5050565b61172382611b4f565b611762576040517f08c379a000000000000000000000000000000000000000000000000000000000815260040161175990613067565b60405180910390fd5b806006600084815260200190815260200160002090816117829190613233565b505050565b60006002600083815260200190815260200160002060009054906101000a900473ffffffffffffffffffffffffffffffffffffffff169050919050565b6117cc611289565b73ffffffffffffffffffffffffffffffffffffffff166117ea610c8c565b73ffffffffffffffffffffffffffffffffffffffff1614611840576040517f08c379a000000000000000000000000000000000000000000000000000000000815260040161183790613351565b60405180910390fd5b565b6000600760009054906101000a900473ffffffffffffffffffffffffffffffffffffffff16905081600760006101000a81548173ffffffffffffffffffffffffffffffffffffffff021916908373ffffffffffffffffffffffffffffffffffffffff1602179055508173ffffffffffffffffffffffffffffffffffffffff168173ffffffffffffffffffffffffffffffffffffffff167f8be0079c531659141344cd1fd0a4f28419497f9722a3daafe3b4186f6b6457e060405160405180910390a35050565b8173ffffffffffffffffffffffffffffffffffffffff168373ffffffffffffffffffffffffffffffffffffffff1603611976576040517f08c379a000000000000000000000000000000000000000000000000000000000815260040161196d906133bd565b60405180910390fd5b80600560008573ffffffffffffffffffffffffffffffffffffffff1673ffffffffffffffffffffffffffffffffffffffff16815260200190815260200160002060008473ffffffffffffffffffffffffffffffffffffffff1673ffffffffffffffffffffffffffffffffffffffff16815260200190815260200160002060006101000a81548160ff0219169083151502179055508173ffffffffffffffffffffffffffffffffffffffff168373ffffffffffffffffffffffffffffffffffffffff167f17307eab39ab6107e8899845ad3d59bd9653f200f220920489ca2b5937696c3183604051611a679190612293565b60405180910390a3505050565b611a7f8484846113df565b611a8b84848484611bf7565b611aca576040517f08c379a0000000000000000000000000000000000000000000000000000000008152600401611ac19061344f565b60405180910390fd5b50505050565b606060405180602001604052806000815250905090565b6060611af28261123e565b6000611afc611ad0565b90506000815111611b1c5760405180602001604052806000815250611b47565b80611b2684611d7e565b604051602001611b37929190612daf565b6040516020818303038152906040525b915050919050565b60008073ffffffffffffffffffffffffffffffffffffffff16611b7183611787565b73ffffffffffffffffffffffffffffffffffffffff1614159050919050565b50505050565b50505050565b611ba68383611e4c565b611bb36000848484611bf7565b611bf2576040517f08c379a0000000000000000000000000000000000000000000000000000000008152600401611be99061344f565b60405180910390fd5b505050565b6000611c188473ffffffffffffffffffffffffffffffffffffffff16612069565b15611d71578373ffffffffffffffffffffffffffffffffffffffff1663150b7a02611c41611289565b8786866040518563ffffffff1660e01b8152600401611c6394939291906134c4565b6020604051808303816000875af1925050508015611c9f57506040513d601f19601f82011682018060405250810190611c9c9190613525565b60015b611d21573d8060008114611ccf576040519150601f19603f3d011682016040523d82523d6000602084013e611cd4565b606091505b506000815103611d19576040517f08c379a0000000000000000000000000000000000000000000000000000000008152600401611d109061344f565b60405180910390fd5b805181602001fd5b63150b7a0260e01b7bffffffffffffffffffffffffffffffffffffffffffffffffffffffff1916817bffffffffffffffffffffffffffffffffffffffffffffffffffffffff191614915050611d76565b600190505b949350505050565b606060006001611d8d8461208c565b01905060008167ffffffffffffffff811115611dac57611dab6124e8565b5b6040519080825280601f01601f191660200182016040528015611dde5781602001600182028036833780820191505090505b509050600082602001820190505b600115611e41578080600190039150507f3031323334353637383961626364656600000000000000000000000000000000600a86061a8153600a8581611e3557611e34613552565b5b04945060008503611dec575b819350505050919050565b600073ffffffffffffffffffffffffffffffffffffffff168273ffffffffffffffffffffffffffffffffffffffff1603611ebb576040517f08c379a0000000000000000000000000000000000000000000000000000000008152600401611eb2906135cd565b60405180910390fd5b611ec481611b4f565b15611f04576040517f08c379a0000000000000000000000000000000000000000000000000000000008152600401611efb90613639565b60405180910390fd5b611f12600083836001611b90565b611f1b81611b4f565b15611f5b576040517f08c379a0000000000000000000000000000000000000000000000000000000008152600401611f5290613639565b60405180910390fd5b6001600360008473ffffffffffffffffffffffffffffffffffffffff1673ffffffffffffffffffffffffffffffffffffffff16815260200190815260200160002060008282540192505081905550816002600083815260200190815260200160002060006101000a81548173ffffffffffffffffffffffffffffffffffffffff021916908373ffffffffffffffffffffffffffffffffffffffff160217905550808273ffffffffffffffffffffffffffffffffffffffff16600073ffffffffffffffffffffffffffffffffffffffff167fddf252ad1be2c89b69c2b068fc378daa952ba7f163c4a11628f55a4df523b3ef60405160405180910390a4612065600083836001611b96565b5050565b6000808273ffffffffffffffffffffffffffffffffffffffff163b119050919050565b600080600090507a184f03e93ff9f4daa797ed6e38ed64bf6a1f01000000000000000083106120ea577a184f03e93ff9f4daa797ed6e38ed64bf6a1f01000000000000000083816120e0576120df613552565b5b0492506040810190505b6d04ee2d6d415b85acef81000000008310612127576d04ee2d6d415b85acef8100000000838161211d5761211c613552565b5b0492506020810190505b662386f26fc10000831061215657662386f26fc10000838161214c5761214b613552565b5b0492506010810190505b6305f5e100831061217f576305f5e100838161217557612174613552565b5b0492506008810190505b61271083106121a457612710838161219a57612199613552565b5b0492506004810190505b606483106121c757606483816121bd576121bc613552565b5b0492506002810190505b600a83106121d6576001810190505b80915050919050565b6000604051905090565b600080fd5b600080fd5b60007fffffffff0000000000000000000000000000000000000000000000000000000082169050919050565b612228816121f3565b811461223357600080fd5b50565b6000813590506122458161221f565b92915050565b600060208284031215612261576122606121e9565b5b600061226f84828501612236565b91505092915050565b60008115159050919050565b61228d81612278565b82525050565b60006020820190506122a86000830184612284565b92915050565b600081519050919050565b600082825260208201905092915050565b60005b838110156122e85780820151818401526020810190506122cd565b60008484015250505050565b6000601f19601f8301169050919050565b6000612310826122ae565b61231a81856122b9565b935061232a8185602086016122ca565b612333816122f4565b840191505092915050565b600060208201905081810360008301526123588184612305565b905092915050565b6000819050919050565b61237381612360565b811461237e57600080fd5b50565b6000813590506123908161236a565b92915050565b6000602082840312156123ac576123ab6121e9565b5b60006123ba84828501612381565b91505092915050565b600073ffffffffffffffffffffffffffffffffffffffff82169050919050565b60006123ee826123c3565b9050919050565b6123fe816123e3565b82525050565b600060208201905061241960008301846123f5565b92915050565b612428816123e3565b811461243357600080fd5b50565b6000813590506124458161241f565b92915050565b60008060408385031215612462576124616121e9565b5b600061247085828601612436565b925050602061248185828601612381565b9150509250929050565b6000806000606084860312156124a4576124a36121e9565b5b60006124b286828701612436565b93505060206124c386828701612436565b92505060406124d486828701612381565b9150509250925092565b600080fd5b600080fd5b7f4e487b7100000000000000000000000000000000000000000000000000000000600052604160045260246000fd5b612520826122f4565b810181811067ffffffffffffffff8211171561253f5761253e6124e8565b5b80604052505050565b60006125526121df565b905061255e8282612517565b919050565b600067ffffffffffffffff82111561257e5761257d6124e8565b5b612587826122f4565b9050602081019050919050565b82818337600083830152505050565b60006125b66125b184612563565b612548565b9050828152602081018484840111156125d2576125d16124e3565b5b6125dd848285612594565b509392505050565b600082601f8301126125fa576125f96124de565b5b813561260a8482602086016125a3565b91505092915050565b6000806040838503121561262a576126296121e9565b5b600083013567ffffffffffffffff811115612648576126476121ee565b5b612654858286016125e5565b925050602061266585828601612381565b9150509250929050565b600060208284031215612685576126846121e9565b5b600061269384828501612436565b91505092915050565b6126a581612360565b82525050565b60006020820190506126c0600083018461269c565b92915050565b60006080820190506126db600083018761269c565b6126e860208301866123f5565b6126f5604083018561269c565b6127026060830184612284565b95945050505050565b60008060408385031215612722576127216121e9565b5b600061273085828601612381565b925050602061274185828601612381565b9150509250929050565b61275481612278565b811461275f57600080fd5b50565b6000813590506127718161274b565b92915050565b6000806040838503121561278e5761278d6121e9565b5b600061279c85828601612436565b92505060206127ad85828601612762565b9150509250929050565b600067ffffffffffffffff8211156127d2576127d16124e8565b5b6127db826122f4565b9050602081019050919050565b60006127fb6127f6846127b7565b612548565b905082815260208101848484011115612817576128166124e3565b5b612822848285612594565b509392505050565b600082601f83011261283f5761283e6124de565b5b813561284f8482602086016127e8565b91505092915050565b60008060008060808587031215612872576128716121e9565b5b600061288087828801612436565b945050602061289187828801612436565b93505060406128a287828801612381565b925050606085013567ffffffffffffffff8111156128c3576128c26121ee565b5b6128cf8782880161282a565b91505092959194509250565b600080604083850312156128f2576128f16121e9565b5b600061290085828601612436565b925050602061291185828601612436565b9150509250929050565b7f4e487b7100000000000000000000000000000000000000000000000000000000600052602260045260246000fd5b6000600282049050600182168061296257607f821691505b6020821081036129755761297461291b565b5b50919050565b7f4552433732313a20617070726f76616c20746f2063757272656e74206f776e6560008201527f7200000000000000000000000000000000000000000000000000000000000000602082015250565b60006129d76021836122b9565b91506129e28261297b565b604082019050919050565b60006020820190508181036000830152612a06816129ca565b9050919050565b7f4552433732313a20617070726f76652063616c6c6572206973206e6f7420746f60008201527f6b656e206f776e6572206f7220617070726f76656420666f7220616c6c000000602082015250565b6000612a69603d836122b9565b9150612a7482612a0d565b604082019050919050565b60006020820190508181036000830152612a9881612a5c565b9050919050565b7f4552433732313a2063616c6c6572206973206e6f7420746f6b656e206f776e6560008201527f72206f7220617070726f76656400000000000000000000000000000000000000602082015250565b6000612afb602d836122b9565b9150612b0682612a9f565b604082019050919050565b60006020820190508181036000830152612b2a81612aee565b9050919050565b7f4e6f7420666f722073616c650000000000000000000000000000000000000000600082015250565b6000612b67600c836122b9565b9150612b7282612b31565b602082019050919050565b60006020820190508181036000830152612b9681612b5a565b9050919050565b7f496e73756666696369656e742066756e64730000000000000000000000000000600082015250565b6000612bd36012836122b9565b9150612bde82612b9d565b602082019050919050565b60006020820190508181036000830152612c0281612bc6565b9050919050565b7f4552433732313a20696e76616c696420746f6b656e2049440000000000000000600082015250565b6000612c3f6018836122b9565b9150612c4a82612c09565b602082019050919050565b60006020820190508181036000830152612c6e81612c32565b9050919050565b7f4552433732313a2061646472657373207a65726f206973206e6f74206120766160008201527f6c6964206f776e65720000000000000000000000000000000000000000000000602082015250565b6000612cd16029836122b9565b9150612cdc82612c75565b604082019050919050565b60006020820190508181036000830152612d0081612cc4565b9050919050565b7f4e6f7420746865206f776e657200000000000000000000000000000000000000600082015250565b6000612d3d600d836122b9565b9150612d4882612d07565b602082019050919050565b60006020820190508181036000830152612d6c81612d30565b9050919050565b600081905092915050565b6000612d89826122ae565b612d938185612d73565b9350612da38185602086016122ca565b80840191505092915050565b6000612dbb8285612d7e565b9150612dc78284612d7e565b91508190509392505050565b7f4e4654206973206e6f74206c697374656420666f722073616c65000000000000600082015250565b6000612e09601a836122b9565b9150612e1482612dd3565b602082019050919050565b60006020820190508181036000830152612e3881612dfc565b9050919050565b7f4f776e61626c653a206e6577206f776e657220697320746865207a65726f206160008201527f6464726573730000000000000000000000000000000000000000000000000000602082015250565b6000612e9b6026836122b9565b9150612ea682612e3f565b604082019050919050565b60006020820190508181036000830152612eca81612e8e565b9050919050565b7f4552433732313a207472616e736665722066726f6d20696e636f72726563742060008201527f6f776e6572000000000000000000000000000000000000000000000000000000602082015250565b6000612f2d6025836122b9565b9150612f3882612ed1565b604082019050919050565b60006020820190508181036000830152612f5c81612f20565b9050919050565b7f4552433732313a207472616e7366657220746f20746865207a65726f2061646460008201527f7265737300000000000000000000000000000000000000000000000000000000602082015250565b6000612fbf6024836122b9565b9150612fca82612f63565b604082019050919050565b60006020820190508181036000830152612fee81612fb2565b9050919050565b7f45524337323155524953746f726167653a2055524920736574206f66206e6f6e60008201527f6578697374656e7420746f6b656e000000000000000000000000000000000000602082015250565b6000613051602e836122b9565b915061305c82612ff5565b604082019050919050565b6000602082019050818103600083015261308081613044565b9050919050565b60008190508160005260206000209050919050565b60006020601f8301049050919050565b600082821b905092915050565b6000600883026130e97fffffffffffffffffffffffffffffffffffffffffffffffffffffffffffffffff826130ac565b6130f386836130ac565b95508019841693508086168417925050509392505050565b6000819050919050565b600061313061312b61312684612360565b61310b565b612360565b9050919050565b6000819050919050565b61314a83613115565b61315e61315682613137565b8484546130b9565b825550505050565b600090565b613173613166565b61317e818484613141565b505050565b5b818110156131a25761319760008261316b565b600181019050613184565b5050565b601f8211156131e7576131b881613087565b6131c18461309c565b810160208510156131d0578190505b6131e46131dc8561309c565b830182613183565b50505b505050565b600082821c905092915050565b600061320a600019846008026131ec565b1980831691505092915050565b600061322383836131f9565b9150826002028217905092915050565b61323c826122ae565b67ffffffffffffffff811115613255576132546124e8565b5b61325f825461294a565b61326a8282856131a6565b600060209050601f83116001811461329d576000841561328b578287015190505b6132958582613217565b8655506132fd565b601f1984166132ab86613087565b60005b828110156132d3578489015182556001820191506020850194506020810190506132ae565b868310156132f057848901516132ec601f8916826131f9565b8355505b6001600288020188555050505b505050505050565b7f4f776e61626c653a2063616c6c6572206973206e6f7420746865206f776e6572600082015250565b600061333b6020836122b9565b915061334682613305565b602082019050919050565b6000602082019050818103600083015261336a8161332e565b9050919050565b7f4552433732313a20617070726f766520746f2063616c6c657200000000000000600082015250565b60006133a76019836122b9565b91506133b282613371565b602082019050919050565b600060208201905081810360008301526133d68161339a565b9050919050565b7f4552433732313a207472616e7366657220746f206e6f6e20455243373231526560008201527f63656976657220696d706c656d656e7465720000000000000000000000000000602082015250565b60006134396032836122b9565b9150613444826133dd565b604082019050919050565b600060208201905081810360008301526134688161342c565b9050919050565b600081519050919050565b600082825260208201905092915050565b60006134968261346f565b6134a0818561347a565b93506134b08185602086016122ca565b6134b9816122f4565b840191505092915050565b60006080820190506134d960008301876123f5565b6134e660208301866123f5565b6134f3604083018561269c565b8181036060830152613505818461348b565b905095945050505050565b60008151905061351f8161221f565b92915050565b60006020828403121561353b5761353a6121e9565b5b600061354984828501613510565b91505092915050565b7f4e487b7100000000000000000000000000000000000000000000000000000000600052601260045260246000fd5b7f4552433732313a206d696e7420746f20746865207a65726f2061646472657373600082015250565b60006135b76020836122b9565b91506135c282613581565b602082019050919050565b600060208201905081810360008301526135e6816135aa565b9050919050565b7f4552433732313a20746f6b656e20616c7265616479206d696e74656400000000600082015250565b6000613623601c836122b9565b915061362e826135ed565b602082019050919050565b6000602082019050818103600083015261365281613616565b905091905056fea26469706673582212201da1c542e606b0f80cc7779dfa11b33c59cc2c3d011a6b526001c453d97c171164736f6c63430008130033",
  "linkReferences": {},
  "deployedLinkReferences": {}
}